{
    "abi": [
        {
            "type": "function",
            "name": "DEFAULT_ADMIN_ROLE",
            "inputs": [],
            "outputs": [
                {
                    "name": "",
                    "type": "bytes32",
                    "internalType": "bytes32"
                }
            ],
            "stateMutability": "view"
        },
        {
            "type": "function",
            "name": "HLP_VAULT",
            "inputs": [],
            "outputs": [
                {
                    "name": "",
                    "type": "address",
                    "internalType": "address"
                }
            ],
            "stateMutability": "view"
        },
        {
            "type": "function",
            "name": "SYSTEM_CONTRACT",
            "inputs": [],
            "outputs": [
                {
                    "name": "",
                    "type": "address",
                    "internalType": "contract IL1Write"
                }
            ],
            "stateMutability": "view"
        },
        {
            "type": "function",
            "name": "TESTNET_BRIDGE",
            "inputs": [],
            "outputs": [
                {
                    "name": "",
                    "type": "address",
                    "internalType": "address"
                }
            ],
            "stateMutability": "view"
        },
        {
            "type": "function",
            "name": "UPGRADE_INTERFACE_VERSION",
            "inputs": [],
            "outputs": [
                {
                    "name": "",
                    "type": "string",
                    "internalType": "string"
                }
            ],
            "stateMutability": "view"
        },
        {
            "type": "function",
            "name": "USDC",
            "inputs": [],
            "outputs": [
                {
                    "name": "",
                    "type": "address",
                    "internalType": "contract IERC20"
                }
            ],
            "stateMutability": "view"
        },
        {
            "type": "function",
            "name": "allowance",
            "inputs": [
                {
                    "name": "owner",
                    "type": "address",
                    "internalType": "address"
                },
                {
                    "name": "spender",
                    "type": "address",
                    "internalType": "address"
                }
            ],
            "outputs": [
                {
                    "name": "",
                    "type": "uint256",
                    "internalType": "uint256"
                }
            ],
            "stateMutability": "view"
        },
        {
            "type": "function",
            "name": "approve",
            "inputs": [
                {
                    "name": "spender",
                    "type": "address",
                    "internalType": "address"
                },
                {
                    "name": "value",
                    "type": "uint256",
                    "internalType": "uint256"
                }
            ],
            "outputs": [
                {
                    "name": "",
                    "type": "bool",
                    "internalType": "bool"
                }
            ],
            "stateMutability": "nonpayable"
        },
        {
            "type": "function",
            "name": "balanceOf",
            "inputs": [
                {
                    "name": "account",
                    "type": "address",
                    "internalType": "address"
                }
            ],
            "outputs": [
                {
                    "name": "",
                    "type": "uint256",
                    "internalType": "uint256"
                }
            ],
            "stateMutability": "view"
        },
        {
            "type": "function",
            "name": "bridgeFromHLP",
            "inputs": [
                {
                    "name": "amount",
                    "type": "uint256",
                    "internalType": "uint256"
                }
            ],
            "outputs": [],
            "stateMutability": "nonpayable"
        },
        {
            "type": "function",
            "name": "bridgeToHLP",
            "inputs": [
                {
                    "name": "amount",
                    "type": "uint256",
                    "internalType": "uint256"
                }
            ],
            "outputs": [],
            "stateMutability": "nonpayable"
        },
        {
            "type": "function",
            "name": "claimableDepositRequest",
            "inputs": [
                {
                    "name": "",
                    "type": "uint256",
                    "internalType": "uint256"
                },
                {
                    "name": "controller",
                    "type": "address",
                    "internalType": "address"
                }
            ],
            "outputs": [
                {
                    "name": "",
                    "type": "uint256",
                    "internalType": "uint256"
                }
            ],
            "stateMutability": "view"
        },
        {
            "type": "function",
            "name": "claimableDeposits",
            "inputs": [
                {
                    "name": "",
                    "type": "address",
                    "internalType": "address"
                }
            ],
            "outputs": [
                {
                    "name": "",
                    "type": "uint256",
                    "internalType": "uint256"
                }
            ],
            "stateMutability": "view"
        },
        {
            "type": "function",
            "name": "claimableRedeemRequest",
            "inputs": [
                {
                    "name": "",
                    "type": "uint256",
                    "internalType": "uint256"
                },
                {
                    "name": "controller",
                    "type": "address",
                    "internalType": "address"
                }
            ],
            "outputs": [
                {
                    "name": "",
                    "type": "uint256",
                    "internalType": "uint256"
                }
            ],
            "stateMutability": "view"
        },
        {
            "type": "function",
            "name": "claimableWithdrawals",
            "inputs": [
                {
                    "name": "",
                    "type": "address",
                    "internalType": "address"
                }
            ],
            "outputs": [
                {
                    "name": "",
                    "type": "uint256",
                    "internalType": "uint256"
                }
            ],
            "stateMutability": "view"
        },
        {
            "type": "function",
            "name": "decimals",
            "inputs": [],
            "outputs": [
                {
                    "name": "",
                    "type": "uint8",
                    "internalType": "uint8"
                }
            ],
            "stateMutability": "view"
        },
        {
            "type": "function",
            "name": "deposit",
            "inputs": [
                {
                    "name": "assets",
                    "type": "uint256",
                    "internalType": "uint256"
                },
                {
                    "name": "receiver",
                    "type": "address",
                    "internalType": "address"
                },
                {
                    "name": "controller",
                    "type": "address",
                    "internalType": "address"
                }
            ],
            "outputs": [
                {
                    "name": "",
                    "type": "uint256",
                    "internalType": "uint256"
                }
            ],
            "stateMutability": "nonpayable"
        },
        {
            "type": "function",
            "name": "depositRequests",
            "inputs": [
                {
                    "name": "",
                    "type": "address",
                    "internalType": "address"
                },
                {
                    "name": "",
                    "type": "uint256",
                    "internalType": "uint256"
                }
            ],
            "outputs": [
                {
                    "name": "amount",
                    "type": "uint256",
                    "internalType": "uint256"
                },
                {
                    "name": "requestTimestamp",
                    "type": "uint256",
                    "internalType": "uint256"
                },
                {
                    "name": "claimed",
                    "type": "bool",
                    "internalType": "bool"
                }
            ],
            "stateMutability": "view"
        },
        {
            "type": "function",
            "name": "getRoleAdmin",
            "inputs": [
                {
                    "name": "role",
                    "type": "bytes32",
                    "internalType": "bytes32"
                }
            ],
            "outputs": [
                {
                    "name": "",
                    "type": "bytes32",
                    "internalType": "bytes32"
                }
            ],
            "stateMutability": "view"
        },
        {
            "type": "function",
            "name": "getTotalHLPEquity",
            "inputs": [],
            "outputs": [
                {
                    "name": "",
                    "type": "uint256",
                    "internalType": "uint256"
                }
            ],
            "stateMutability": "view"
        },
        {
            "type": "function",
            "name": "grantRole",
            "inputs": [
                {
                    "name": "role",
                    "type": "bytes32",
                    "internalType": "bytes32"
                },
                {
                    "name": "account",
                    "type": "address",
                    "internalType": "address"
                }
            ],
            "outputs": [],
            "stateMutability": "nonpayable"
        },
        {
            "type": "function",
            "name": "hasRole",
            "inputs": [
                {
                    "name": "role",
                    "type": "bytes32",
                    "internalType": "bytes32"
                },
                {
                    "name": "account",
                    "type": "address",
                    "internalType": "address"
                }
            ],
            "outputs": [
                {
                    "name": "",
                    "type": "bool",
                    "internalType": "bool"
                }
            ],
            "stateMutability": "view"
        },
        {
            "type": "function",
            "name": "initialize",
            "inputs": [
                {
                    "name": "_usdc",
                    "type": "address",
                    "internalType": "address"
                }
            ],
            "outputs": [],
            "stateMutability": "nonpayable"
        },
        {
            "type": "function",
            "name": "isOperator",
            "inputs": [
                {
                    "name": "",
                    "type": "address",
                    "internalType": "address"
                },
                {
                    "name": "",
                    "type": "address",
                    "internalType": "address"
                }
            ],
            "outputs": [
                {
                    "name": "",
                    "type": "bool",
                    "internalType": "bool"
                }
            ],
            "stateMutability": "view"
        },
        {
            "type": "function",
            "name": "name",
            "inputs": [],
            "outputs": [
                {
                    "name": "",
                    "type": "string",
                    "internalType": "string"
                }
            ],
            "stateMutability": "view"
        },
        {
            "type": "function",
            "name": "pendingDepositRequest",
            "inputs": [
                {
                    "name": "",
                    "type": "uint256",
                    "internalType": "uint256"
                },
                {
                    "name": "controller",
                    "type": "address",
                    "internalType": "address"
                }
            ],
            "outputs": [
                {
                    "name": "",
                    "type": "uint256",
                    "internalType": "uint256"
                }
            ],
            "stateMutability": "view"
        },
        {
            "type": "function",
            "name": "pendingDeposits",
            "inputs": [
                {
                    "name": "",
                    "type": "address",
                    "internalType": "address"
                }
            ],
            "outputs": [
                {
                    "name": "",
                    "type": "uint256",
                    "internalType": "uint256"
                }
            ],
            "stateMutability": "view"
        },
        {
            "type": "function",
            "name": "pendingRedeemRequest",
            "inputs": [
                {
                    "name": "",
                    "type": "uint256",
                    "internalType": "uint256"
                },
                {
                    "name": "controller",
                    "type": "address",
                    "internalType": "address"
                }
            ],
            "outputs": [
                {
                    "name": "",
                    "type": "uint256",
                    "internalType": "uint256"
                }
            ],
            "stateMutability": "view"
        },
        {
            "type": "function",
            "name": "pendingWithdrawals",
            "inputs": [
                {
                    "name": "",
                    "type": "address",
                    "internalType": "address"
                }
            ],
            "outputs": [
                {
                    "name": "",
                    "type": "uint256",
                    "internalType": "uint256"
                }
            ],
            "stateMutability": "view"
        },
        {
            "type": "function",
            "name": "proxiableUUID",
            "inputs": [],
            "outputs": [
                {
                    "name": "",
                    "type": "bytes32",
                    "internalType": "bytes32"
                }
            ],
            "stateMutability": "view"
        },
        {
            "type": "function",
            "name": "redeem",
            "inputs": [
                {
                    "name": "shares",
                    "type": "uint256",
                    "internalType": "uint256"
                },
                {
                    "name": "receiver",
                    "type": "address",
                    "internalType": "address"
                },
                {
                    "name": "controller",
                    "type": "address",
                    "internalType": "address"
                }
            ],
            "outputs": [
                {
                    "name": "",
                    "type": "uint256",
                    "internalType": "uint256"
                }
            ],
            "stateMutability": "nonpayable"
        },
        {
            "type": "function",
            "name": "renounceRole",
            "inputs": [
                {
                    "name": "role",
                    "type": "bytes32",
                    "internalType": "bytes32"
                },
                {
                    "name": "callerConfirmation",
                    "type": "address",
                    "internalType": "address"
                }
            ],
            "outputs": [],
            "stateMutability": "nonpayable"
        },
        {
            "type": "function",
            "name": "requestDeposit",
            "inputs": [
                {
                    "name": "assets",
                    "type": "uint256",
                    "internalType": "uint256"
                },
                {
                    "name": "controller",
                    "type": "address",
                    "internalType": "address"
                },
                {
                    "name": "owner",
                    "type": "address",
                    "internalType": "address"
                }
            ],
            "outputs": [
                {
                    "name": "",
                    "type": "uint256",
                    "internalType": "uint256"
                }
            ],
            "stateMutability": "nonpayable"
        },
        {
            "type": "function",
            "name": "requestRedeem",
            "inputs": [
                {
                    "name": "shares",
                    "type": "uint256",
                    "internalType": "uint256"
                },
                {
                    "name": "controller",
                    "type": "address",
                    "internalType": "address"
                },
                {
                    "name": "owner",
                    "type": "address",
                    "internalType": "address"
                }
            ],
            "outputs": [
                {
                    "name": "",
                    "type": "uint256",
                    "internalType": "uint256"
                }
            ],
            "stateMutability": "nonpayable"
        },
        {
            "type": "function",
            "name": "revokeRole",
            "inputs": [
                {
                    "name": "role",
                    "type": "bytes32",
                    "internalType": "bytes32"
                },
                {
                    "name": "account",
                    "type": "address",
                    "internalType": "address"
                }
            ],
            "outputs": [],
            "stateMutability": "nonpayable"
        },
        {
            "type": "function",
            "name": "setOperator",
            "inputs": [
                {
                    "name": "operator",
                    "type": "address",
                    "internalType": "address"
                },
                {
                    "name": "approved",
                    "type": "bool",
                    "internalType": "bool"
                }
            ],
            "outputs": [
                {
                    "name": "",
                    "type": "bool",
                    "internalType": "bool"
                }
            ],
            "stateMutability": "nonpayable"
        },
        {
            "type": "function",
            "name": "supportsInterface",
            "inputs": [
                {
                    "name": "interfaceId",
                    "type": "bytes4",
                    "internalType": "bytes4"
                }
            ],
            "outputs": [
                {
                    "name": "",
                    "type": "bool",
                    "internalType": "bool"
                }
            ],
            "stateMutability": "view"
        },
        {
            "type": "function",
            "name": "symbol",
            "inputs": [],
            "outputs": [
                {
                    "name": "",
                    "type": "string",
                    "internalType": "string"
                }
            ],
            "stateMutability": "view"
        },
        {
            "type": "function",
            "name": "totalSupply",
            "inputs": [],
            "outputs": [
                {
                    "name": "",
                    "type": "uint256",
                    "internalType": "uint256"
                }
            ],
            "stateMutability": "view"
        },
        {
            "type": "function",
            "name": "transfer",
            "inputs": [
                {
                    "name": "to",
                    "type": "address",
                    "internalType": "address"
                },
                {
                    "name": "value",
                    "type": "uint256",
                    "internalType": "uint256"
                }
            ],
            "outputs": [
                {
                    "name": "",
                    "type": "bool",
                    "internalType": "bool"
                }
            ],
            "stateMutability": "nonpayable"
        },
        {
            "type": "function",
            "name": "transferFrom",
            "inputs": [
                {
                    "name": "from",
                    "type": "address",
                    "internalType": "address"
                },
                {
                    "name": "to",
                    "type": "address",
                    "internalType": "address"
                },
                {
                    "name": "value",
                    "type": "uint256",
                    "internalType": "uint256"
                }
            ],
            "outputs": [
                {
                    "name": "",
                    "type": "bool",
                    "internalType": "bool"
                }
            ],
            "stateMutability": "nonpayable"
        },
        {
            "type": "function",
            "name": "upgradeToAndCall",
            "inputs": [
                {
                    "name": "newImplementation",
                    "type": "address",
                    "internalType": "address"
                },
                {
                    "name": "data",
                    "type": "bytes",
                    "internalType": "bytes"
                }
            ],
            "outputs": [],
            "stateMutability": "payable"
        },
        {
            "type": "function",
            "name": "withdrawalRequests",
            "inputs": [
                {
                    "name": "",
                    "type": "address",
                    "internalType": "address"
                },
                {
                    "name": "",
                    "type": "uint256",
                    "internalType": "uint256"
                }
            ],
            "outputs": [
                {
                    "name": "amount",
                    "type": "uint256",
                    "internalType": "uint256"
                },
                {
                    "name": "requestTimestamp",
                    "type": "uint256",
                    "internalType": "uint256"
                },
                {
                    "name": "claimed",
                    "type": "bool",
                    "internalType": "bool"
                }
            ],
            "stateMutability": "view"
        },
        {
            "type": "event",
            "name": "Approval",
            "inputs": [
                {
                    "name": "owner",
                    "type": "address",
                    "indexed": true,
                    "internalType": "address"
                },
                {
                    "name": "spender",
                    "type": "address",
                    "indexed": true,
                    "internalType": "address"
                },
                {
                    "name": "value",
                    "type": "uint256",
                    "indexed": false,
                    "internalType": "uint256"
                }
            ],
            "anonymous": false
        },
        {
            "type": "event",
            "name": "BridgedFromHLP",
            "inputs": [
                {
                    "name": "amount",
                    "type": "uint256",
                    "indexed": false,
                    "internalType": "uint256"
                }
            ],
            "anonymous": false
        },
        {
            "type": "event",
            "name": "BridgedToHLP",
            "inputs": [
                {
                    "name": "amount",
                    "type": "uint256",
                    "indexed": false,
                    "internalType": "uint256"
                }
            ],
            "anonymous": false
        },
        {
            "type": "event",
            "name": "Deposit",
            "inputs": [
                {
                    "name": "controller",
                    "type": "address",
                    "indexed": true,
                    "internalType": "address"
                },
                {
                    "name": "receiver",
                    "type": "address",
                    "indexed": true,
                    "internalType": "address"
                },
                {
                    "name": "assets",
                    "type": "uint256",
                    "indexed": false,
                    "internalType": "uint256"
                },
                {
                    "name": "shares",
                    "type": "uint256",
                    "indexed": false,
                    "internalType": "uint256"
                }
            ],
            "anonymous": false
        },
        {
            "type": "event",
            "name": "DepositRequested",
            "inputs": [
                {
                    "name": "controller",
                    "type": "address",
                    "indexed": true,
                    "internalType": "address"
                },
                {
                    "name": "owner",
                    "type": "address",
                    "indexed": true,
                    "internalType": "address"
                },
                {
                    "name": "requestId",
                    "type": "uint256",
                    "indexed": true,
                    "internalType": "uint256"
                },
                {
                    "name": "sender",
                    "type": "address",
                    "indexed": false,
                    "internalType": "address"
                },
                {
                    "name": "assets",
                    "type": "uint256",
                    "indexed": false,
                    "internalType": "uint256"
                }
            ],
            "anonymous": false
        },
        {
            "type": "event",
            "name": "Initialized",
            "inputs": [
                {
                    "name": "version",
                    "type": "uint64",
                    "indexed": false,
                    "internalType": "uint64"
                }
            ],
            "anonymous": false
        },
        {
            "type": "event",
            "name": "OperatorSet",
            "inputs": [
                {
                    "name": "controller",
                    "type": "address",
                    "indexed": true,
                    "internalType": "address"
                },
                {
                    "name": "operator",
                    "type": "address",
                    "indexed": true,
                    "internalType": "address"
                },
                {
                    "name": "approved",
                    "type": "bool",
                    "indexed": false,
                    "internalType": "bool"
                }
            ],
            "anonymous": false
        },
        {
            "type": "event",
            "name": "RedeemRequested",
            "inputs": [
                {
                    "name": "controller",
                    "type": "address",
                    "indexed": true,
                    "internalType": "address"
                },
                {
                    "name": "owner",
                    "type": "address",
                    "indexed": true,
                    "internalType": "address"
                },
                {
                    "name": "requestId",
                    "type": "uint256",
                    "indexed": true,
                    "internalType": "uint256"
                },
                {
                    "name": "sender",
                    "type": "address",
                    "indexed": false,
                    "internalType": "address"
                },
                {
                    "name": "shares",
                    "type": "uint256",
                    "indexed": false,
                    "internalType": "uint256"
                }
            ],
            "anonymous": false
        },
        {
            "type": "event",
            "name": "RoleAdminChanged",
            "inputs": [
                {
                    "name": "role",
                    "type": "bytes32",
                    "indexed": true,
                    "internalType": "bytes32"
                },
                {
                    "name": "previousAdminRole",
                    "type": "bytes32",
                    "indexed": true,
                    "internalType": "bytes32"
                },
                {
                    "name": "newAdminRole",
                    "type": "bytes32",
                    "indexed": true,
                    "internalType": "bytes32"
                }
            ],
            "anonymous": false
        },
        {
            "type": "event",
            "name": "RoleGranted",
            "inputs": [
                {
                    "name": "role",
                    "type": "bytes32",
                    "indexed": true,
                    "internalType": "bytes32"
                },
                {
                    "name": "account",
                    "type": "address",
                    "indexed": true,
                    "internalType": "address"
                },
                {
                    "name": "sender",
                    "type": "address",
                    "indexed": true,
                    "internalType": "address"
                }
            ],
            "anonymous": false
        },
        {
            "type": "event",
            "name": "RoleRevoked",
            "inputs": [
                {
                    "name": "role",
                    "type": "bytes32",
                    "indexed": true,
                    "internalType": "bytes32"
                },
                {
                    "name": "account",
                    "type": "address",
                    "indexed": true,
                    "internalType": "address"
                },
                {
                    "name": "sender",
                    "type": "address",
                    "indexed": true,
                    "internalType": "address"
                }
            ],
            "anonymous": false
        },
        {
            "type": "event",
            "name": "Transfer",
            "inputs": [
                {
                    "name": "from",
                    "type": "address",
                    "indexed": true,
                    "internalType": "address"
                },
                {
                    "name": "to",
                    "type": "address",
                    "indexed": true,
                    "internalType": "address"
                },
                {
                    "name": "value",
                    "type": "uint256",
                    "indexed": false,
                    "internalType": "uint256"
                }
            ],
            "anonymous": false
        },
        {
            "type": "event",
            "name": "Upgraded",
            "inputs": [
                {
                    "name": "implementation",
                    "type": "address",
                    "indexed": true,
                    "internalType": "address"
                }
            ],
            "anonymous": false
        },
        {
            "type": "event",
            "name": "Withdraw",
            "inputs": [
                {
                    "name": "controller",
                    "type": "address",
                    "indexed": true,
                    "internalType": "address"
                },
                {
                    "name": "receiver",
                    "type": "address",
                    "indexed": true,
                    "internalType": "address"
                },
                {
                    "name": "shares",
                    "type": "uint256",
                    "indexed": false,
                    "internalType": "uint256"
                },
                {
                    "name": "assets",
                    "type": "uint256",
                    "indexed": false,
                    "internalType": "uint256"
                }
            ],
            "anonymous": false
        },
        {
            "type": "error",
            "name": "AccessControlBadConfirmation",
            "inputs": []
        },
        {
            "type": "error",
            "name": "AccessControlUnauthorizedAccount",
            "inputs": [
                {
                    "name": "account",
                    "type": "address",
                    "internalType": "address"
                },
                {
                    "name": "neededRole",
                    "type": "bytes32",
                    "internalType": "bytes32"
                }
            ]
        },
        {
            "type": "error",
            "name": "AddressEmptyCode",
            "inputs": [
                {
                    "name": "target",
                    "type": "address",
                    "internalType": "address"
                }
            ]
        },
        {
            "type": "error",
            "name": "ERC1967InvalidImplementation",
            "inputs": [
                {
                    "name": "implementation",
                    "type": "address",
                    "internalType": "address"
                }
            ]
        },
        {
            "type": "error",
            "name": "ERC1967NonPayable",
            "inputs": []
        },
        {
            "type": "error",
            "name": "ERC20InsufficientAllowance",
            "inputs": [
                {
                    "name": "spender",
                    "type": "address",
                    "internalType": "address"
                },
                {
                    "name": "allowance",
                    "type": "uint256",
                    "internalType": "uint256"
                },
                {
                    "name": "needed",
                    "type": "uint256",
                    "internalType": "uint256"
                }
            ]
        },
        {
            "type": "error",
            "name": "ERC20InsufficientBalance",
            "inputs": [
                {
                    "name": "sender",
                    "type": "address",
                    "internalType": "address"
                },
                {
                    "name": "balance",
                    "type": "uint256",
                    "internalType": "uint256"
                },
                {
                    "name": "needed",
                    "type": "uint256",
                    "internalType": "uint256"
                }
            ]
        },
        {
            "type": "error",
            "name": "ERC20InvalidApprover",
            "inputs": [
                {
                    "name": "approver",
                    "type": "address",
                    "internalType": "address"
                }
            ]
        },
        {
            "type": "error",
            "name": "ERC20InvalidReceiver",
            "inputs": [
                {
                    "name": "receiver",
                    "type": "address",
                    "internalType": "address"
                }
            ]
        },
        {
            "type": "error",
            "name": "ERC20InvalidSender",
            "inputs": [
                {
                    "name": "sender",
                    "type": "address",
                    "internalType": "address"
                }
            ]
        },
        {
            "type": "error",
            "name": "ERC20InvalidSpender",
            "inputs": [
                {
                    "name": "spender",
                    "type": "address",
                    "internalType": "address"
                }
            ]
        },
        {
            "type": "error",
            "name": "FailedCall",
            "inputs": []
        },
        {
            "type": "error",
            "name": "InsufficientBalance",
            "inputs": []
        },
        {
            "type": "error",
            "name": "InsufficientClaimable",
            "inputs": []
        },
        {
            "type": "error",
            "name": "InsufficientShares",
            "inputs": []
        },
        {
            "type": "error",
            "name": "InvalidInitialization",
            "inputs": []
        },
        {
            "type": "error",
            "name": "NotAuthorized",
            "inputs": []
        },
        {
            "type": "error",
            "name": "NotInitializing",
            "inputs": []
        },
        {
            "type": "error",
            "name": "PrecompileError",
            "inputs": []
        },
        {
            "type": "error",
            "name": "ReentrancyGuardReentrantCall",
            "inputs": []
        },
        {
            "type": "error",
            "name": "UUPSUnauthorizedCallContext",
            "inputs": []
        },
        {
            "type": "error",
            "name": "UUPSUnsupportedProxiableUUID",
            "inputs": [
                {
                    "name": "slot",
                    "type": "bytes32",
                    "internalType": "bytes32"
                }
            ]
        },
        {
            "type": "error",
            "name": "ZeroAmount",
            "inputs": []
        }
    ],
    "bytecode": {
        "object": "0x60a0604052306080523480156012575f80fd5b50608051612d3a6100395f395f8181611e0e01528181611e370152611f7a0152612d3a5ff3fe608060405260043610610254575f3560e01c80637a194ba21161013f578063ad3cb1cc116100b3578063d547741f11610078578063d547741f1461078e578063dd62ed3e146107ad578063eaed1d07146107cc578063eb3349b914610802578063f3f437031461082d578063f5a23d8d14610858575f80fd5b8063ad3cb1cc146106c0578063b6363cf2146106f0578063b8ca27e114610729578063ba08765214610750578063c4d66de81461076f575f80fd5b806391d148541161010457806391d148541461060657806395d89b4114610625578063995ea21a146106395780639f7d1c081461066f578063a217fddf1461068e578063a9059cbb146106a1575f80fd5b80637a194ba2146105545780637bf3e0fb1461057f5780637d41c86e146105aa57806385b77f45146105c957806389a30271146105e8575f80fd5b80632f2ff15d116101d657806352d1902d1161019b57806352d1902d1461049d578063558a7297146104b15780636d479231146104d057806370a08231146104ef5780637573ca921461050e5780637662932914610535575f80fd5b80632f2ff15d146103f3578063313ce5671461041457806336568abe1461042f5780634e5a23281461044e5780634f1ef2861461048a575f80fd5b806318160ddd1161021c57806318160ddd1461032d57806323b872dd14610360578063248a9ca31461037f57806326c6f96c1461039e5780632e2d2984146103d4575f80fd5b806301ffc9a714610258578063025543111461028c57806306f5e1e9146102ae57806306fdde03146102ed578063095ea7b31461030e575b5f80fd5b348015610263575f80fd5b5061027761027236600461275f565b61088e565b60405190151581526020015b60405180910390f35b348015610297575f80fd5b506102a0610908565b604051908152602001610283565b3480156102b9575f80fd5b506102d573a15099a30bbf2e68942d6f4c43d70d04faeab0a081565b6040516001600160a01b039091168152602001610283565b3480156102f8575f80fd5b506103016109e8565b6040516102839190612786565b348015610319575f80fd5b506102776103283660046127d6565b610aa8565b348015610338575f80fd5b507f52c63247e1f47db19d5ce0460030c497f067ca4cebf71ba98eeadabe20bace02546102a0565b34801561036b575f80fd5b5061027761037a3660046127fe565b610abf565b34801561038a575f80fd5b506102a0610399366004612837565b610ae4565b3480156103a9575f80fd5b506102a06103b836600461284e565b6001600160a01b03165f90815260026020526040902054919050565b3480156103df575f80fd5b506102a06103ee366004612878565b610b04565b3480156103fe575f80fd5b5061041261040d36600461284e565b610c96565b005b34801561041f575f80fd5b5060405160128152602001610283565b34801561043a575f80fd5b5061041261044936600461284e565b610cb8565b348015610459575f80fd5b5061046d6104683660046127d6565b610cf0565b604080519384526020840192909252151590820152606001610283565b6104126104983660046128f6565b610d31565b3480156104a8575f80fd5b506102a0610d50565b3480156104bc575f80fd5b506102776104cb3660046129a3565b610d6b565b3480156104db575f80fd5b506104126104ea366004612837565b610dda565b3480156104fa575f80fd5b506102a06105093660046129d8565b61107a565b348015610519575f80fd5b506102d573333333333333333333333333333333333333333381565b348015610540575f80fd5b5061046d61054f3660046127d6565b6110a0565b34801561055f575f80fd5b506102a061056e3660046129d8565b60036020525f908152604090205481565b34801561058a575f80fd5b506102a06105993660046129d8565b60066020525f908152604090205481565b3480156105b5575f80fd5b506102a06105c4366004612878565b6110b9565b3480156105d4575f80fd5b506102a06105e3366004612878565b61125f565b3480156105f3575f80fd5b505f546102d5906001600160a01b031681565b348015610611575f80fd5b5061027761062036600461284e565b61142a565b348015610630575f80fd5b50610301611460565b348015610644575f80fd5b506102a061065336600461284e565b6001600160a01b03165f90815260036020526040902054919050565b34801561067a575f80fd5b50610412610689366004612837565b61149e565b348015610699575f80fd5b506102a05f81565b3480156106ac575f80fd5b506102776106bb3660046127d6565b61159f565b3480156106cb575f80fd5b50610301604051806040016040528060058152602001640352e302e360dc1b81525081565b3480156106fb575f80fd5b5061027761070a3660046129f1565b600760209081525f928352604080842090915290825290205460ff1681565b348015610734575f80fd5b506102d573222222222222222222222222222222222222222281565b34801561075b575f80fd5b506102a061076a366004612878565b6115ac565b34801561077a575f80fd5b506104126107893660046129d8565b611787565b348015610799575f80fd5b506104126107a836600461284e565b611916565b3480156107b8575f80fd5b506102a06107c73660046129f1565b611932565b3480156107d7575f80fd5b506102a06107e636600461284e565b6001600160a01b03165f90815260066020526040902054919050565b34801561080d575f80fd5b506102a061081c3660046129d8565b60026020525f908152604090205481565b348015610838575f80fd5b506102a06108473660046129d8565b60056020525f908152604090205481565b348015610863575f80fd5b506102a061087236600461284e565b6001600160a01b03165f90815260056020526040902054919050565b5f63071de27360e11b6001600160e01b0319831614806108bd575062bc286360e21b6001600160e01b03198316145b806108d85750630ce3bbe560e01b6001600160e01b03198316145b806108f35750630310774760e11b6001600160e01b03198316145b8061090257506109028261197b565b92915050565b6040805130602082015273a15099a30bbf2e68942d6f4c43d70d04faeab0a0818301528151808203830181526060909101918290525f91829182916108029161095091612a19565b5f60405180830381855afa9150503d805f8114610988576040519150601f19603f3d011682016040523d82523d5f602084013e61098d565b606091505b5091509150816109b05760405163682a890f60e11b815260040160405180910390fd5b5f818060200190518101906109c59190612a2f565b80519091506109e09060649067ffffffffffffffff16612a96565b935050505090565b7f52c63247e1f47db19d5ce0460030c497f067ca4cebf71ba98eeadabe20bace0380546060915f80516020612c8583398151915291610a2690612aad565b80601f0160208091040260200160405190810160405280929190818152602001828054610a5290612aad565b8015610a9d5780601f10610a7457610100808354040283529160200191610a9d565b820191905f5260205f20905b815481529060010190602001808311610a8057829003601f168201915b505050505091505090565b5f33610ab58185856119af565b5060019392505050565b5f33610acc8582856119bc565b610ad7858585611a1f565b60019150505b9392505050565b5f9081525f80516020612cc5833981519152602052604090206001015490565b5f610b0d611a7c565b835f03610b2d57604051631f2a200560e01b815260040160405180910390fd5b6001600160a01b0382163314801590610b6957506001600160a01b0382165f90815260076020908152604080832033845290915290205460ff16155b15610b875760405163ea8e4eb560e01b815260040160405180910390fd5b5f610b9183611ab3565b905084811015610bb45760405163eb6def5160e01b815260040160405180910390fd5b6001600160a01b0383165f9081526003602052604081208054879290610bdb908490612ae5565b909155505f9050610c1b86610c0e7f52c63247e1f47db19d5ce0460030c497f067ca4cebf71ba98eeadabe20bace025490565b610c16610908565b611c41565b9050610c278582611c95565b846001600160a01b0316846001600160a01b03167fdcbc1c05240f31ff3ad067ef1ee35ce4997762752e3a095284754544f4c709d78884604051610c75929190918252602082015260400190565b60405180910390a3915050610add60015f80516020612ce583398151915255565b610c9f82610ae4565b610ca881611cdc565b610cb28383611ce9565b50505050565b6001600160a01b0381163314610ce15760405163334bd91960e11b815260040160405180910390fd5b610ceb8282611d8a565b505050565b6004602052815f5260405f208181548110610d09575f80fd5b5f91825260209091206003909102018054600182015460029092015490935090915060ff1683565b610d39611e03565b610d4282611ea9565b610d4c8282611eb3565b5050565b5f610d59611f6f565b505f80516020612ca583398151915290565b335f8181526007602090815260408083206001600160a01b038716808552908352818420805460ff191687151590811790915591519182529293917fceb576d9f15e4e200fdb5096d64d5dfd667e16def20c1eefd14256d8e3faa267910160405180910390a350600192915050565b5f610de481611cdc565b815f03610e0457604051631f2a200560e01b815260040160405180910390fd5b5f546040516370a0823160e01b815230600482015283916001600160a01b0316906370a0823190602401602060405180830381865afa158015610e49573d5f803e3d5ffd5b505050506040513d601f19601f82011682018060405250810190610e6d9190612af8565b1015610e8c57604051631e9acf1760e31b815260040160405180910390fd5b5f5460405163a9059cbb60e01b81527322222222222222222222222222222222222222226004820152602481018490526001600160a01b039091169063a9059cbb906044016020604051808303815f875af1158015610eed573d5f803e3d5ffd5b505050506040513d601f19601f82011682018060405250810190610f119190612b0f565b50733333333333333333333333333333333333333333632d9d5db6610f37606485612b3e565b6040516001600160e01b031960e084901b16815267ffffffffffffffff9091166004820152600160248201526044015f604051808303815f87803b158015610f7d575f80fd5b505af1158015610f8f573d5f803e3d5ffd5b50733333333333333333333333333333333333333333925063258f0dcc915073a15099a30bbf2e68942d6f4c43d70d04faeab0a090506001610fd2606487612b3e565b6040516001600160e01b031960e086901b1681526001600160a01b039093166004840152901515602483015267ffffffffffffffff1660448201526064015f604051808303815f87803b158015611027575f80fd5b505af1158015611039573d5f803e3d5ffd5b505050507fd7d922666d7c9b451430ef98ee9c93cdb9b6d9cdc0337eee962c12f05986b0a88260405161106e91815260200190565b60405180910390a15050565b6001600160a01b03165f9081525f80516020612c85833981519152602052604090205490565b6001602052815f5260405f208181548110610d09575f80fd5b5f6110c2611a7c565b835f036110e257604051631f2a200560e01b815260040160405180910390fd5b6001600160a01b038216331480159061111e57506001600160a01b0382165f90815260076020908152604080832033845290915290205460ff16155b1561113c5760405163ea8e4eb560e01b815260040160405180910390fd5b836111468361107a565b101561116557604051633999656760e01b815260040160405180910390fd5b61116f8285611fb8565b6001600160a01b0383165f8181526004602090815260408083208151606081018352898152428185019081528184018681528354600180820186559488528688209351600390910290930192835590519282019290925590516002909101805460ff19169115159190911790559282526005905290812080548692906111f6908490612b5d565b909155505060408051338152602081018690525f916001600160a01b0380861692908716917f1e7ddf69e1e9242eb5635deb06ffd4691a8962ec488a863a26721288c889855191015b60405180910390a4505f610add60015f80516020612ce583398151915255565b5f611268611a7c565b835f0361128857604051631f2a200560e01b815260040160405180910390fd5b6001600160a01b03821633148015906112c457506001600160a01b0382165f90815260076020908152604080832033845290915290205460ff16155b156112e25760405163ea8e4eb560e01b815260040160405180910390fd5b5f546040516323b872dd60e01b81526001600160a01b03848116600483015230602483015260448201879052909116906323b872dd906064016020604051808303815f875af1158015611337573d5f803e3d5ffd5b505050506040513d601f19601f8201168201806040525081019061135b9190612b0f565b506001600160a01b0383165f81815260016020818152604080842081516060810183528a8152428185019081528184018781528354808801855593885285882092516003909402909201928355519482019490945592516002938401805460ff19169115159190911790559383525290812080548692906113dd908490612b5d565b909155505060408051338152602081018690525f916001600160a01b0380861692908716917f1d29486a5e3ec3aeab2168099a5bf0cfa1664052f673812babd91912115380fb910161123f565b5f9182525f80516020612cc5833981519152602090815260408084206001600160a01b0393909316845291905290205460ff1690565b7f52c63247e1f47db19d5ce0460030c497f067ca4cebf71ba98eeadabe20bace0480546060915f80516020612c8583398151915291610a2690612aad565b5f6114a881611cdc565b815f036114c857604051631f2a200560e01b815260040160405180910390fd5b73333333333333333333333333333333333333333363258f0dcc73a15099a30bbf2e68942d6f4c43d70d04faeab0a05f611503606487612b3e565b6040516001600160e01b031960e086901b1681526001600160a01b039093166004840152901515602483015267ffffffffffffffff1660448201526064015f604051808303815f87803b158015611558575f80fd5b505af115801561156a573d5f803e3d5ffd5b505050507fb76f9d1586e091b5a261e37f0a8c1a77ffdc7458f12576253469bbf206c43ec28260405161106e91815260200190565b5f33610ab5818585611a1f565b5f6115b5611a7c565b835f036115d557604051631f2a200560e01b815260040160405180910390fd5b6001600160a01b038216331480159061161157506001600160a01b0382165f90815260076020908152604080832033845290915290205460ff16155b1561162f5760405163ea8e4eb560e01b815260040160405180910390fd5b5f61163983611fec565b90508481101561165c5760405163eb6def5160e01b815260040160405180910390fd5b6001600160a01b0383165f9081526006602052604081208054879290611683908490612ae5565b909155505f90506116c3866116b67f52c63247e1f47db19d5ce0460030c497f067ca4cebf71ba98eeadabe20bace025490565b6116be610908565b612186565b5f5460405163a9059cbb60e01b81526001600160a01b0388811660048301526024820184905292935091169063a9059cbb906044016020604051808303815f875af1158015611714573d5f803e3d5ffd5b505050506040513d601f19601f820116820180604052508101906117389190612b0f565b50846001600160a01b0316846001600160a01b03167ff341246adaac6f497bc2a656f546ab9e182111d630394f0c57c710a59a2cb5678884604051610c75929190918252602082015260400190565b7ff0c57e16840df040f15088dc2f81fe391c3923bec73e23a9662efc9c229c6a008054600160401b810460ff16159067ffffffffffffffff165f811580156117cc5750825b90505f8267ffffffffffffffff1660011480156117e85750303b155b9050811580156117f6575080155b156118145760405163f92ee8a960e01b815260040160405180910390fd5b845467ffffffffffffffff19166001178555831561183e57845460ff60401b1916600160401b1785555b61188b6040518060400160405280600f81526020016e12131408105cde5b98c815985d5b1d608a1b815250604051806040016040528060048152602001632426283b60e11b8152506121a9565b6118936121bb565b61189b6121c3565b6118a36121bb565b5f80546001600160a01b0319166001600160a01b0388161781556118c79033611ce9565b50831561190e57845460ff60401b19168555604051600181527fc7f505b2f371ae2175ee4913f4499e1f2633a7b5936321eed1cdaeb6115181d29060200160405180910390a15b505050505050565b61191f82610ae4565b61192881611cdc565b610cb28383611d8a565b6001600160a01b039182165f9081527f52c63247e1f47db19d5ce0460030c497f067ca4cebf71ba98eeadabe20bace016020908152604080832093909416825291909152205490565b5f6001600160e01b03198216637965db0b60e01b148061090257506301ffc9a760e01b6001600160e01b0319831614610902565b610ceb83838360016121d3565b5f6119c78484611932565b90505f19811015610cb25781811015611a1157604051637dc7a0d960e11b81526001600160a01b038416600482015260248101829052604481018390526064015b60405180910390fd5b610cb284848484035f6121d3565b6001600160a01b038316611a4857604051634b637e8f60e11b81525f6004820152602401611a08565b6001600160a01b038216611a715760405163ec442f0560e01b81525f6004820152602401611a08565b610ceb8383836122b7565b5f80516020612ce5833981519152805460011901611aad57604051633ee5aeb560e01b815260040160405180910390fd5b60029055565b6001600160a01b0381165f908152600160205260408120815b8154811015611c2457818181548110611ae757611ae7612b70565b5f91825260209091206002600390920201015460ff16158015611b39575062054600828281548110611b1b57611b1b612b70565b905f5260205f20906003020160010154611b359190612b5d565b4210155b15611c1c576001828281548110611b5257611b52612b70565b905f5260205f2090600302016002015f6101000a81548160ff021916908315150217905550818181548110611b8957611b89612b70565b905f5260205f2090600302015f015460025f866001600160a01b03166001600160a01b031681526020019081526020015f205f828254611bc99190612ae5565b92505081905550818181548110611be257611be2612b70565b5f9182526020808320600392830201546001600160a01b038816845291905260408220805491929091611c16908490612b5d565b90915550505b600101611acc565b5050506001600160a01b03165f9081526003602052604090205490565b5f82158015611c4f57505f84115b15611c745764174876e8008410611c665783611c6d565b64174876e8005b9050610add565b815f03611c82575082610add565b611c8d8484846123f0565b949350505050565b6001600160a01b038216611cbe5760405163ec442f0560e01b81525f6004820152602401611a08565b610d4c5f83836122b7565b60015f80516020612ce583398151915255565b611ce681336124a6565b50565b5f5f80516020612cc5833981519152611d02848461142a565b611d81575f848152602082815260408083206001600160a01b03871684529091529020805460ff19166001179055611d373390565b6001600160a01b0316836001600160a01b0316857f2f8788117e7eff1d82e926ec794901d17c78024a50270940304540a733656f0d60405160405180910390a46001915050610902565b5f915050610902565b5f5f80516020612cc5833981519152611da3848461142a565b15611d81575f848152602082815260408083206001600160a01b0387168085529252808320805460ff1916905551339287917ff6391f5c32d9c69d2a47ea670b442974b53935d1edc7fd64eb21e047a839171b9190a46001915050610902565b306001600160a01b037f0000000000000000000000000000000000000000000000000000000000000000161480611e8957507f00000000000000000000000000000000000000000000000000000000000000006001600160a01b0316611e7d5f80516020612ca5833981519152546001600160a01b031690565b6001600160a01b031614155b15611ea75760405163703e46dd60e11b815260040160405180910390fd5b565b5f610d4c81611cdc565b816001600160a01b03166352d1902d6040518163ffffffff1660e01b8152600401602060405180830381865afa925050508015611f0d575060408051601f3d908101601f19168201909252611f0a91810190612af8565b60015b611f3557604051634c9c8ce360e01b81526001600160a01b0383166004820152602401611a08565b5f80516020612ca58339815191528114611f6557604051632a87526960e21b815260048101829052602401611a08565b610ceb83836124df565b306001600160a01b037f00000000000000000000000000000000000000000000000000000000000000001614611ea75760405163703e46dd60e11b815260040160405180910390fd5b6001600160a01b038216611fe157604051634b637e8f60e11b81525f6004820152602401611a08565b610d4c825f836122b7565b6001600160a01b0381165f908152600460205260408120815b81548110156121695781818154811061202057612020612b70565b5f91825260209091206002600390920201015460ff1615801561207257506205460082828154811061205457612054612b70565b905f5260205f2090600302016001015461206e9190612b5d565b4210155b1561216157600182828154811061208b5761208b612b70565b905f5260205f2090600302016002015f6101000a81548160ff0219169083151502179055508181815481106120c2576120c2612b70565b905f5260205f2090600302015f015460055f866001600160a01b03166001600160a01b031681526020019081526020015f205f8282546121029190612ae5565b9250508190555081818154811061211b5761211b612b70565b905f5260205f2090600302015f015460065f866001600160a01b03166001600160a01b031681526020019081526020015f205f82825461215b9190612b5d565b90915550505b600101612005565b5050506001600160a01b03165f9081526006602052604090205490565b5f821580612192575081155b1561219e575082610add565b611c8d8483856123f0565b6121b1612534565b610d4c828261257d565b611ea7612534565b6121cb612534565b611ea76125cd565b5f80516020612c858339815191526001600160a01b03851661220a5760405163e602df0560e01b81525f6004820152602401611a08565b6001600160a01b03841661223357604051634a1406b160e11b81525f6004820152602401611a08565b6001600160a01b038086165f908152600183016020908152604080832093881683529290522083905581156122b057836001600160a01b0316856001600160a01b03167f8c5be1e5ebec7d5bd14f71427d1e84f3dd0314c0f7b2291e5b200ac8c7c3b925856040516122a791815260200190565b60405180910390a35b5050505050565b5f80516020612c858339815191526001600160a01b0384166122f15781816002015f8282546122e69190612b5d565b909155506123619050565b6001600160a01b0384165f90815260208290526040902054828110156123435760405163391434e360e21b81526001600160a01b03861660048201526024810182905260448101849052606401611a08565b6001600160a01b0385165f9081526020839052604090209083900390555b6001600160a01b03831661237f57600281018054839003905561239d565b6001600160a01b0383165f9081526020829052604090208054830190555b826001600160a01b0316846001600160a01b03167fddf252ad1be2c89b69c2b068fc378daa952ba7f163c4a11628f55a4df523b3ef846040516123e291815260200190565b60405180910390a350505050565b5f838302815f1985870982811083820303915050805f036124245783828161241a5761241a612b2a565b0492505050610add565b80841161243b5761243b60038515026011186125d5565b5f848688095f868103871696879004966002600389028118808a02820302808a02820302808a02820302808a02820302808a02820302808a02909103029181900381900460010186841190950394909402919094039290920491909117919091029150509392505050565b6124b0828261142a565b610d4c5760405163e2517d3f60e01b81526001600160a01b038216600482015260248101839052604401611a08565b6124e8826125e6565b6040516001600160a01b038316907fbc7cd75a20ee27fd9adebab32041f755214dbc6bffa90cc0225b39da2e5c2d3b905f90a280511561252c57610ceb8282612649565b610d4c6126bb565b7ff0c57e16840df040f15088dc2f81fe391c3923bec73e23a9662efc9c229c6a0054600160401b900460ff16611ea757604051631afcd79f60e31b815260040160405180910390fd5b612585612534565b5f80516020612c858339815191527f52c63247e1f47db19d5ce0460030c497f067ca4cebf71ba98eeadabe20bace036125be8482612bc8565b5060048101610cb28382612bc8565b611cc9612534565b634e487b715f52806020526024601cfd5b806001600160a01b03163b5f0361261b57604051634c9c8ce360e01b81526001600160a01b0382166004820152602401611a08565b5f80516020612ca583398151915280546001600160a01b0319166001600160a01b0392909216919091179055565b60605f80846001600160a01b0316846040516126659190612a19565b5f60405180830381855af49150503d805f811461269d576040519150601f19603f3d011682016040523d82523d5f602084013e6126a2565b606091505b50915091506126b28583836126da565b95945050505050565b3415611ea75760405163b398979f60e01b815260040160405180910390fd5b6060826126ef576126ea82612736565b610add565b815115801561270657506001600160a01b0384163b155b1561272f57604051639996b31560e01b81526001600160a01b0385166004820152602401611a08565b5080610add565b8051156127465780518082602001fd5b60405163d6bda27560e01b815260040160405180910390fd5b5f6020828403121561276f575f80fd5b81356001600160e01b031981168114610add575f80fd5b602081525f82518060208401528060208501604085015e5f604082850101526040601f19601f83011684010191505092915050565b80356001600160a01b03811681146127d1575f80fd5b919050565b5f80604083850312156127e7575f80fd5b6127f0836127bb565b946020939093013593505050565b5f805f60608486031215612810575f80fd5b612819846127bb565b9250612827602085016127bb565b9150604084013590509250925092565b5f60208284031215612847575f80fd5b5035919050565b5f806040838503121561285f575f80fd5b8235915061286f602084016127bb565b90509250929050565b5f805f6060848603121561288a575f80fd5b8335925061289a602085016127bb565b91506128a8604085016127bb565b90509250925092565b634e487b7160e01b5f52604160045260245ffd5b604051601f8201601f1916810167ffffffffffffffff811182821017156128ee576128ee6128b1565b604052919050565b5f8060408385031215612907575f80fd5b612910836127bb565b915060208084013567ffffffffffffffff8082111561292d575f80fd5b818601915086601f830112612940575f80fd5b813581811115612952576129526128b1565b612964601f8201601f191685016128c5565b91508082528784828501011115612979575f80fd5b80848401858401375f848284010152508093505050509250929050565b8015158114611ce6575f80fd5b5f80604083850312156129b4575f80fd5b6129bd836127bb565b915060208301356129cd81612996565b809150509250929050565b5f602082840312156129e8575f80fd5b610add826127bb565b5f8060408385031215612a02575f80fd5b612a0b836127bb565b915061286f602084016127bb565b5f82518060208501845e5f920191825250919050565b5f60208284031215612a3f575f80fd5b6040516020810167ffffffffffffffff8282108183111715612a6357612a636128b1565b81604052845191508082168214612a78575f80fd5b5081529392505050565b634e487b7160e01b5f52601160045260245ffd5b808202811582820484141761090257610902612a82565b600181811c90821680612ac157607f821691505b602082108103612adf57634e487b7160e01b5f52602260045260245ffd5b50919050565b8181038181111561090257610902612a82565b5f60208284031215612b08575f80fd5b5051919050565b5f60208284031215612b1f575f80fd5b8151610add81612996565b634e487b7160e01b5f52601260045260245ffd5b5f82612b5857634e487b7160e01b5f52601260045260245ffd5b500490565b8082018082111561090257610902612a82565b634e487b7160e01b5f52603260045260245ffd5b601f821115610ceb57805f5260205f20601f840160051c81016020851015612ba95750805b601f840160051c820191505b818110156122b0575f8155600101612bb5565b815167ffffffffffffffff811115612be257612be26128b1565b612bf681612bf08454612aad565b84612b84565b602080601f831160018114612c29575f8415612c125750858301515b5f19600386901b1c1916600185901b17855561190e565b5f85815260208120601f198616915b82811015612c5757888601518255948401946001909101908401612c38565b5085821015612c7457878501515f19600388901b60f8161c191681555b5050505050600190811b0190555056fe52c63247e1f47db19d5ce0460030c497f067ca4cebf71ba98eeadabe20bace00360894a13ba1a3210667c828492db98dca3e2076cc3735a920a3ca505d382bbc02dd7bc7dec4dceedda775e58dd541e08a116c6c53815c0bd028192f7b6268009b779b17422d0df92223018b32b4d1fa46e071723d6817e2486d003becc55f00a26469706673582212205fd865b3f14f3189e1d22e93c00b49449a40c53a96dc9ff2b6391be517273ba864736f6c63430008190033",
        "linkReferences": {}
    },
    "methodIdentifiers": {
        "DEFAULT_ADMIN_ROLE()": "a217fddf",
        "HLP_VAULT()": "06f5e1e9",
        "SYSTEM_CONTRACT()": "7573ca92",
        "TESTNET_BRIDGE()": "b8ca27e1",
        "UPGRADE_INTERFACE_VERSION()": "ad3cb1cc",
        "USDC()": "89a30271",
        "allowance(address,address)": "dd62ed3e",
        "approve(address,uint256)": "095ea7b3",
        "balanceOf(address)": "70a08231",
        "bridgeFromHLP(uint256)": "9f7d1c08",
        "bridgeToHLP(uint256)": "6d479231",
        "claimableDepositRequest(uint256,address)": "995ea21a",
        "claimableDeposits(address)": "7a194ba2",
        "claimableRedeemRequest(uint256,address)": "eaed1d07",
        "claimableWithdrawals(address)": "7bf3e0fb",
        "decimals()": "313ce567",
        "deposit(uint256,address,address)": "2e2d2984",
        "depositRequests(address,uint256)": "76629329",
        "getRoleAdmin(bytes32)": "248a9ca3",
        "getTotalHLPEquity()": "02554311",
        "grantRole(bytes32,address)": "2f2ff15d",
        "hasRole(bytes32,address)": "91d14854",
        "initialize(address)": "c4d66de8",
        "isOperator(address,address)": "b6363cf2",
        "name()": "06fdde03",
        "pendingDepositRequest(uint256,address)": "26c6f96c",
        "pendingDeposits(address)": "eb3349b9",
        "pendingRedeemRequest(uint256,address)": "f5a23d8d",
        "pendingWithdrawals(address)": "f3f43703",
        "proxiableUUID()": "52d1902d",
        "redeem(uint256,address,address)": "ba087652",
        "renounceRole(bytes32,address)": "36568abe",
        "requestDeposit(uint256,address,address)": "85b77f45",
        "requestRedeem(uint256,address,address)": "7d41c86e",
        "revokeRole(bytes32,address)": "d547741f",
        "setOperator(address,bool)": "558a7297",
        "supportsInterface(bytes4)": "01ffc9a7",
        "symbol()": "95d89b41",
        "totalSupply()": "18160ddd",
        "transfer(address,uint256)": "a9059cbb",
        "transferFrom(address,address,uint256)": "23b872dd",
        "upgradeToAndCall(address,bytes)": "4f1ef286",
        "withdrawalRequests(address,uint256)": "4e5a2328"
    },
    "id": 38
}